:020000041000EA
:1000000000B5324B212058609868022188439860DF
:10001000D860186158612E4B002199600221596106
:100020000121F02299502B49196001219960352056
:1000300000F044F80222904214D00621196600F024
:1000400034F8196E01211966002018661A6600F04E
:100050002CF8196E196E196E052000F02FF8012189
:100060000842F9D1002199601B49196000215960AB
:100070001A491B48016001219960EB211966A021F2
:10008000196600F012F800219960164914480160C1
:100090000121996001BC002800D000471248134993
:1000A000086003C880F30888084703B5996A0420EC
:1000B0000142FBD001200142F8D103BD02B5186610
:1000C0001866FFF7F2FF186E186E02BD00000240BE
:1000D000000000180000070000035F00212200005C
:1000E000F4000018222000A00001001008ED00E03C
:1000F00000000000000000000000000074B24E7A12
:1001000000200420F7010010CB010010CD010010E9
:10011000C9010010C9010010C9010010C901001077
:10012000C9010010C9010010C9010010CF01001061
:10013000C9010010C9010010D1010010D301001045
:10014000C1010010C1010010C1010010C101001067
:10015000C1010010C1010010C1010010C101001057
:10016000C1010010C1010010C1010010C101001047
:10017000C1010010C1010010C1010010C101001037
:10018000C1010010C1010010C1010010C101001027
:10019000C1010010C1010010C1010010C101001017
:1001A000C1010010C1010010C1010010C101001007
:1001B000C1010010C1010010C1010010C1010010F7
:1001C000EFF30580103800BE00BE00BE00BE00BECA
:1001D00000BE00BEF2EB88714CEB00106CEB00101F
:1001E0003802001090A31AE71E481F49086006C88D
:1001F00081F3088810471D480068002801D019487D
:10020000F3E70DA40ECC002902D000F012F8F9E7B4
:100210001749184A002000E001C19142FCD116495B
:100220008847164988471649884700BEFDE701C937
:1002300001C29A42FBD370476CEB0010C000002053
:10024000E01B00208C0601100000042000000420A8
:100250008C06011000100420001004200000000093
:10026000704700000000000008ED00E0000000D032
:10027000E01B0020D82B0020A144001061060010D4
:1002800065440010F8B5C04610B5064C2378002B25
:1002900007D1054B002B02D0044800E000BF01232A
:1002A000237010BD701F00200000000014CE00104D
:1002B000044B10B5002B03D00349044800E000BFF5
:1002C00010BDC04600000000741F002014CE0010B6
:1002D000D02380221B06D200002801D05A6170472B
:1002E0009A61FCE7D02380221B065200002801D02F
:1002F0005A6170479A61FCE7D02380221B06920066
:10030000002801D05A6170479A61FCE710B5034A92
:100310000349044804F02CFB10BDC04618CE001061
:1003200020CE001030CE001010B5012000F0FAFAF7
:10033000014804F093FA10BD5CCE001010B5002007
:1003400000F0F0FA014804F089FA10BD64CE001004
:1003500010B5022000F0E6FA014804F07FFA10BD63
:100360006CCE0010002300B583B00C4901AA0193A4
:1003700008F002F8002101280BD1FC20019BC000ED
:10038000D90C5A09C90202401B061143DB0E19435E
:1003900089B2034807F012F903B000BD90CE0010F7
:1003A0005C2B0020002300B587B0039304930593D2
:1003B00005AB00930F4904AB03AA07F0DDFF01284A
:1003C00009DD032809D00C4B049A03990B4892B21B
:1003D00089B207F08BF807B000BDFC20059AC00079
:1003E000D30C5109DB02014012060B43D20E13431A
:1003F0009BB2E9E778CE0010FFFF00005C2B0020E5
:1004000070B58AB009AB029308AB019307AB0093B8
:10041000114906AB05AA07F0AFFF052801D00AB0C5
:1004200070BDFC26099CF600E00C65093540C00251
:1004300024062843E40E204380B201900898079BCD
:10044000069A059980B200909BB2044892B289B294
:1004500007F00EF9E3E7C04684CE00105C2B0020C5
:1004600070B58AB009AB029308AB019307AB009358
:10047000114906AB05AA07F07FFF052801D00AB095
:1004800070BDFC26099CF600E00C65093540C002F1
:1004900024062843E40E204380B201900898079B6D
:1004A000069A059980B200909BB2044892B289B234
:1004B00007F090F8E3E7C04684CE00105C2B0020E4
:1004C00070B58AB009AB029308AB019307AB0093F8
:1004D000114906AB05AA07F04FFF052801D00AB065
:1004E00070BDFC26099CF600E00C65093540C00291
:1004F00024062843E40E204380B201900898079B0D
:10050000069A059980B200909BB2044892B289B2D3
:1005100007F010F8E3E7C04684CE00105C2B002003
:100520000023F0B599B00493059307AB029308AC90
:1005300006AB01931749009405AB04AA07F01CFF12
:10054000052801D019B0F0BDFC251F27059B079E8B
:100550009AB2049BED0099B2F00C73092B40C002D3
:10056000F60818433E40304380B2069B029006983E
:10057000DB0C40092840DB0203430698C5083D40D8
:100580002B439BB20193044B04480093230007F0D4
:1005900011F9D7E794CE001088D600105C2B00200C
:1005A00010B50A00010002480CF0DAFB10BDC0468D
:1005B00000C0034010B502000B00024800210CF0FF
:1005C0009FFB10BD00C0034010B501F047F810BDFF
:1005D00010B51A491A4806F0B9FD0121042000F0AF
:1005E000A7F90121062000F0A3F90121072000F05E
:1005F0009FF90A2000F0B6F9082000F0B3F90920AD
:1006000000F0B0F9D0238020802180221B069200C8
:10061000C0004900586259625A62586199619A61F2
:10062000084B094A1A60094A5A60094A9A60094AFD
:10063000DA60094A1A61094A5A6110BDA0ACB903CF
:1006400000C00340682B0020A1050010B505001074
:10065000D1020010E5020010F9020010C9050010D7
:10066000F0B585B004F05EF800F082F8374800F08D
:10067000B5F800F003F9FFF7ABFF354C3549200022
:1006800006F0AEFE0121200007F0CEF80021200088
:1006900006F094FF9620400000F0E0FFF8233C2590
:1006A0001B020A220A21200001930095642306F010
:1006B00041FFFC23DB000A227821200001930095F2
:1006C000642306F037FF1F230A22E621200001934E
:1006D0000095313306F02EFF50231F4D5A220A2178
:1006E000200001950093DC3306F074FFEF274023D0
:1006F0001A4E0022002120000097FF33019606F0D9
:10070000B7FF402100970027154B002220000193DE
:10071000FF31002306F0ACFF0195124D6422142135
:100720002000114B0297009507F044F87422142121
:1007300020000E4B02970196009507F03BF800F061
:100740001DF800F065F800F0B1F8F8E7E0100020BF
:100750005C2B0020682B0020FFFF0000E0FF000062
:10076000FF07000088D60010A8CE0010B8CE0010F9
:100770000022014B1A607047F026002010B50020BF
:1007800003F0D4FF0400831C1FD004F01BF80D2CD1
:100790000BD00A2C09D00E4A13687E2B11DC0020E6
:1007A0000C49CC540133136010BD0022084B094C96
:1007B00019680948625421001A6004F0D9F8200031
:1007C000F2E7002300201360EEE70020ECE7C046CC
:1007D000F026002070260020A0CF001010B50A4B94
:1007E0000A4C186023685A00D218920081580029D8
:1007F00009D00C3201338018026819000C30013323
:10080000002AF9D1216010BD5C250020F4260020CB
:10081000F0B5C646060000B500281DD0202107F01F
:10082000D5FD00281FD000230370431C98460F4BB2
:100830001F68002F13DD0E4B00251C6803E00135F7
:100840000C34BD420BD03000216807F01FFE002899
:10085000F5D140466368984780BCB846F0BD05486E
:1008600003F0FCFFF8E7044B9846E0E7F42600208D
:100870005C250020B8CF001058CE001000220020C8
:100880000021084B10B51A70074B186059601930D9
:1008900000F068F8D02380221B0692045A629A6105
:1008A00010BDC046D32B0020681D002070B51A4B28
:1008B0001B78012B04D0022B0ED0002B06D070BD6C
:1008C000D02380221B0692045A61F8E7D0238022AD
:1008D0001B0692049A61F2E700F06AFF0F4C63680E
:1008E0008B4203D3EBD123688342E8D200F060FF50
:1008F0000B4B1D6800236A0812184B41226063608D
:10090000D02380221B0659689204114201D15A61FA
:10091000D5E79A61D3E7C046D32B0020681D00209D
:1009200064110020014B18707047C046D32B002083
:1009300010B54024084A83009A181268C000544039
:10094000C0222240054CA44663441A60044B9C46D6
:100950006044416010BDC04604C0014004D0014065
:10096000004001400123D0228340402112069362BF
:100970009361094A83009A181268C0005140C0224E
:100980000A4006498C4663441A60054B9C46052381
:10099000604443607047C04604C0014004D0014039
:1009A000004001408023DB051868000F7047C046F7
:1009B0000FB400B5084883B003F050FF049B002B30
:1009C00007D005A91800019103F018FD034803F0B2
:1009D00045FF012003F02AFDCCCF0010DCCF001032
:1009E00070B5EFF3108C72B60D4D2B68002BFCD058
:1009F000BFF35F8F0724CB08C618C05C01230C40EF
:100A0000A3401C000440034207D103433370BFF3EB
:100A10005F8F2C608CF3108870BD1000FFF7C8FF4B
:100A20002C0100D0F8B54746CE46884680B5EFF396
:100A3000108C72B6214D2C68002CFCD0BFF35F8F58
:100A40009A422CD8D4080727055D061901241740BF
:100A5000BC402C421FD007210127894609E0D40859
:100A6000055D06194C4639001440A1400C0029428E
:100A700011D001329342F2D201204042BFF35F8F86
:100A800000220E4B1A608CF3108800280FDBC0BCCC
:100A9000B946B046F8BD2C4310003470EEE7BFF302
:100AA0005F8F00232B608CF3108801204042434667
:100AB000002BECD00898FFF77BFFC0462C0100D03C
:100AC000044A1078431CDBB2172B00D91023137093
:100AD0007047C0466811002000B5054B83B0010087
:100AE000009318221F230348FFF79CFF03B000BDAB
:100AF000E0CF0010682600200021044B044ABFF319
:100B00005F8F02C39342FAD17047C046000100D004
:100B1000800100D0054B064A1360064A13605360FB
:100B20009360D360136153619361704780808080CC
:100B300000E400E004E400E01F2318401E3B834073
:100B4000002905D0C021044A490053501360704762
:100B5000802201498B50FAE700E100E00122824047
:100B6000034B1B6813405A1E9341D8B27047C046CE
:100B700000E100E001238340014A13607047C04652
:100B800000E200E0064B10309B688000C358054A25
:100B900000209B1A2F229A424041C0B27047C046A3
:100BA00000ED00E06C11002070B50D00EFF3108631
:100BB00072B60F4A1368002BFCD0BFF35F8F0D4B4A
:100BC00010309B6884001B590B4A934203D09D420E
:100BD00001D001F025F8074B9B681D51BFF35F8FD3
:100BE000BFF35F8F0022024B1A6086F3108870BD3E
:100BF000240100D000ED00E0C1010010F0B557461F
:100C00004E46DE464546E0B585B006000291170027
:100C1000EFF3108B72B6674A1368002BFCD0BFF35A
:100C20005F8F0025644B5D579A46002D00DAA4E0E3
:100C30006B00624C03935B199B009846A146C1442C
:100C40004B4652469B79103613705D4BB2009B6841
:100C5000019299580B1B2F2B34D95A4B994200D033
:100C6000A4E0039B584A9C46584B6544AD0063532F
:100C7000434602336519E418554B0121043B1B1B05
:100C80001B055B0D13436B80524BEF71AB80FF2351
:100C9000AB71029BAB604B460B431900484B019A6A
:100CA0009B689950BFF35F8FBFF35F8F0022414B6A
:100CB0001A608BF3108805B0F0BCBB46B246A9465B
:100CC000A046F0BD01200A008243D379BB422FD851
:100CD00045464E46130040491B1B5B415943090DD5
:100CE0003A4B63533A4B02356519043B5B1B1B05BA
:100CF000354D5B0D2B4373800426B446E0444444D9
:100D0000131F1B1B4C46A17102991B05A16049468C
:100D10005B0D2B43A380314BE77101431360BDE7AB
:100D20005800C01880002018C679BE422BD9020096
:100D30000623D356002BF3DA101D8246284880463E
:100D400004267642B446E14450464E46361A3005F3
:100D5000400D824656461C48957106439680039A7C
:100D6000944665441D4AAD00641922604246A37151
:100D7000029BA280E771A36090E700F051FF00257D
:100D800053465D5754E7101D824690884005001574
:100D900084464046D444664604302018301AE02683
:100DA0000005400D360230438046C9E700F038FFA9
:100DB00057E7C046240100D0D12B00206C11002041
:100DC00000ED00E0C101001000E0FFFF00A1FFFF07
:100DD0009C11002001BDFFFFAAAA00000148804726
:100DE00001BD000070B501240443EFF30581EFF36A
:100DF000108C72B6214A1368002BFCD0BFF35F8FB2
:100E00001F4B05001F4AED1A6D416A43120D1E4D1E
:100E10008900AE6852B27658A6421CD006215956B7
:100E200091421CD012215956914222D01E2159566E
:100E3000914220D02A2159560324914210D0134BBD
:100E400019781A708171BFF35F8F00220B4B1A6003
:100E50008CF3108870BDAB680D4C5C50EFE700243C
:100E60006100091989005B18FF219971094999806E
:100E7000E5E70124F4E70224F2E7C046240100D0AC
:100E80006C110020AAAA000000ED00E0D12B002088
:100E9000C101001001BDFFFF00B5074B83B0010089
:100EA0000093002205230548FFF7BCFD002801DB65
:100EB0001F23181A03B000BDFCCF0010D62B002052
:100EC000024B9C4661448900016070474000003439
:100ED000F8B5134D134E2C00FF27B5421ED22368E0
:100EE000002B0FD0FFF7ECFD01002800FFF7E8FF13
:100EF000A780BFF35F8F0834B4420FD22368250068
:100F0000002BEFD1FFF7DCFD01002800FFF7D8FF31
:100F10002771BFF35F8F0834B442EFD3F8BDC046EA
:100F2000D81B0020E01B002010B50400FFF7C8FD0F
:100F300001002000FFF7C4FFFF232371BFF35F8F81
:100F400010BDC04610B504000120FFF7C5FD044BDD
:100F50009C46604480002060BFF35F8F10BDC04698
:100F600040000034034B9C46614489000160BFF39C
:100F70005F8F7047400000340A4B1968EFF3108010
:100F800072B60A68002AFCD0BFF35F8F1B68BFF3FC
:100F90005F8F00221A6080F3108840BF002000217C
:100FA0007047C046B02B0020F0B5DE4657464E468F
:100FB0004546E0B585B0EFF30582032313409A0060
:100FC00011000392B64A5258904601229A40914627
:100FD000B44B1A604B46B4484363434608229B5EB9
:100FE0009A46002B3DDA43469B881BB2002B00DB60
:100FF000A1E043469B79002B00D0F3E04346082450
:101000001C5F002C23DB42465269630094461B1987
:10101000DB0063449C68DD68631C00D10FE1A248DB
:10102000039984466144826A0B69A61A9B1A9E4200
:1010300015D34A46036A1A4211D09B4800F0B0FB10
:10104000241A8D41002D02DCC4D1002CC2D040BF37
:1010500005B0F0BCBB46B246A946A046F0BD0C6147
:10106000EBE7424652695B0093465344DB009B44E6
:101070005B469E68DF6800F093FB801BB941002946
:10108000B1DB002F00DAE5E05B46884A1B6993423A
:1010900000D1D8E041465A460820085E5288000434
:1010A00010435A465169984704000D0023002B4312
:1010B00000D1CFE0002D00DBE8E0361BAF4134006B
:1010C0003D005B469C60DD600021595E002900DA2E
:1010D00089E743465B6922009C462B004800401884
:1010E000C00060448668C768921BBB41002B00DAD1
:1010F00079E74346664602000094019519810CE0A9
:101100007B00DB19DB00F318009801999C68DD680F
:10111000001BA941002904DB1A000023D75E002F21
:10112000EEDA5B461F805346138043469B881BB212
:10113000002B00DA5DE743461A69EFF3108172B6BF
:101140001368002BFCD0BFF35F8F43469B88424659
:101150001BB29A4601235B4293801369BFF35F8FF2
:1011600000221A6081F310885346002B00DA40E712
:1011700043465B699C46082343449B4653465F00B5
:1011800043465744FF0008229A5E67445E46BC68A7
:10119000FD68002A19DB3B000094019567469C46D8
:1011A00004E01E000023F25E002A0BDB0098019988
:1011B00053009B18DB00FB189C68DD68001BA941ED
:1011C0000029EEDA6346BC461F00534633800021F7
:1011D0007B5E3A809A46002BD0DA43469B79002BFF
:1011E00000D10BE70023424693714346464608214F
:1011F000595E08364B1C00D129E747468C46556995
:1012000002E006004B1C17D04B005B18DB00E8180F
:101210000A00E95E43881BB2002BF2DA01235B422D
:10122000DC178360C4606245ECD031803B89944612
:1012300003803A814B1CE7D1B8466446E1E66B1C5B
:1012400000D0ECE6F9E65B465C692000236998472C
:10125000002821D15B4642461B8813811269EFF3B7
:10126000108372B611680029FCD0BFF35F8F42462D
:10127000594652880A804246514651801269BFF34E
:101280005F8F0021116083F31088ACE6064800F000
:1012900087FA24184D4114E76568246806E7C046BC
:1012A000942B00203C70054000400540A90F001021
:1012B00070B52E4C2569002D04D00A212C48FFF76B
:1012C000FFFD70BD2B4E0321300000F05FFAE66099
:1012D000FFF7F6FB284B03229C46D02322701B0607
:1012E0001B6801216370254B6044A3600F238000BD
:1012F00020610220638063694942A1801980023124
:10130000198647311D83585218315A5275325C394B
:1013100099521832013199521832013199521832CA
:1013200001319952083518329D52023118329952C2
:101330001832013199521832013199521832013163
:1013400099521832013199521832013199520C4B8D
:101350000C49DC6001303562FFF726FC01210320D7
:10136000FFF7EAFB084B1D60A7E7C046B411002059
:10137000B02B00200040054040000034FFFF10006B
:10138000942B0020A90F00103860054000487047DA
:10139000B4110020F8B51F0008AB1B78040016003C
:1013A000002B07D100F004FA32003B00121A8B41E7
:1013B000002B4CDB2269EFF3108072B61368002B10
:1013C000FCD0BFF35F8F62690223E15E94464B005D
:1013D0005B18DB006344002901DB1A886280226904
:1013E000BFF35F8F0025156080F31088002930DB84
:1013F000069A9E60DF601A61079A5A615A88013224
:101400005204520C161C002A1FD0B0B20A045E808F
:1014100010432669EFF3108572B63268002AFCD0BB
:10142000BFF35F8FA2881A80A1802369BFF35F8F0B
:1014300000221A6085F31088074923788C46013210
:101440009A40E36863441A60F8BD0126DDE7002096
:10145000FAE701204042F7E73C20000070B5C6469D
:10146000010000B50469EFF3108C72B62068002803
:10147000FCD0BFF35F8F02200D5E48696C00804690
:101480006419E4004444002D01DB20884880086989
:10149000BFF35F8F002606608CF31088002D30DBD1
:1014A000E36063880598013320615B0406985B0C58
:1014B000A26060611A1C002B21D090B22B046280C4
:1014C00018430A69EFF3108672B61368002BFCD03C
:1014D000BFF35F8F8B8823808D800B69BFF35F8F95
:1014E00000221A6086F310880B7801329A40CB688C
:1014F00005498C4663441A6040BCB04670BD012269
:10150000DBE701204042F7E73C20000010B54389AB
:101510000A14934233DD53009B184269DB00944662
:1015200004696344EFF3108C72B62268002AFCD081
:10153000BFF35F8F5A88090494B2090C8A4208D01D
:101540000369BFF35F8F00221A608CF310880020BC
:1015500010BD8022120214435C8001230269837152
:10156000BFF35F8F002111608CF31088054902786A
:101570008C469340C268012062441360E8E7002073
:10158000E6E7C0463C20000040787047F0B5040014
:101590000D0006267642F717C64636196F4100B58C
:1015A00082B08F4214D811D000F002F932003B0013
:1015B000121A8B41002B15DC002B44D0200029008F
:1015C00000F02AF902B080BCB846F0BD8642EBD9E3
:1015D0000026002700F0ECF832003B00121A8B4185
:1015E000002BE9DD00F0E4F832003B00121A8B41D9
:1015F000002B0ADB00230193144B320000931448A4
:101600003B00FFF72BFF0028D8DBB0460026BC4686
:10161000104A114F7B6A9C4504D8B96A8845CDD9D8
:101620009C45CBD11168EFF3108072B60B68002B8C
:10163000FCD0BFF35F8F1368BFF35F8F1E6080F332
:10164000108820BFE6E7002AB8D0CBE7790F00105A
:10165000B4110020B02B00200040054070B50600FA
:1016600000F0A6F8FA2204000D000023300000214B
:10167000920001F023FB00196941002902DBFFF70A
:1016800085FF70BD012001494042F8E7FFFFFF7F61
:10169000F0B5CE46474680B504000D0083B0EFF3A9
:1016A0000587002F0DD0364A0020536A8B4203D3A2
:1016B000926A0130A24250D303B0C0BCB946B046D2
:1016C000F0BD304B9846DB689946434648461E7845
:1016D00000F066F80B00494602000436B600715867
:1016E00020008E1A2900801A99418F4211DC0ED0F9
:1016F00020BF234A0020536AAB42DDD3926A0130F7
:10170000A242D9D2E81A421E9041C0B2D4E7864222
:10171000EED900F04DF822002B00121A8B41002B5D
:1017200020DB00230193184B2200009340462B003E
:10173000FFF794FE011E15DD114B2E005A6A9542EB
:101740001CD89B6AA34217D34046FFF7DFFE0C4A22
:101750000020536A9E42AFD8D0E7581A421E9041EB
:10176000C0B2A9E7064A0020536AAB42A4D3926AEA
:101770000120A242A0D2C5E79542E5D120BFE3E710
:1017800000400540B4110020790F001010B5024A46
:101790000248FFF725F910BD18D000106C26002074
:1017A0000300416A0A00986A596A8A42FAD170476E
:1017B000034B596A0A00986A596A9142FAD17047F4
:1017C0000040054070B504000D00124A536A19002C
:1017D000966A536A8B42FAD13000190024184D41A1
:1017E000AB4211D80ED02B000A494A6A9A42FCD368
:1017F00007D1084A02E0516A994202D1916AA14296
:10180000F9D370BDA642EED9012301246442E51745
:101810005B42E9E700400540064A536A9942FCD81A
:1018200007D1044B02E05A6A914202D19A6A82427D
:10183000F9D3704700400540F8B5DE464E4657469E
:101840004546E0B58B4605000A991800160000F0E1
:1018500045FB0A9B6C001F02324B64199C46A40096
:101860006444636881469F4200D967602B1FDBB2E6
:101870009846012B30D9C02380229B01E318120126
:101880001A60294BAD0059599A4600291BD122688C
:1018900076017240E0268023164042465B01E31841
:1018A0001E60012A30D9802380229B01E318120197
:1018B0001A6053464A4667605A51F0BCBB46B2466E
:1018C000A946A046F8BD586900F008FB431C580023
:1018D000C0180338FDD2DAE75B46012BCBD1C02319
:1018E00003229B01E3181A60023AA3681A42FCD053
:1018F000E0232268760156401E4080230A4A5B019D
:101900009246E3181E60AD005A46216851400322FA
:101910000A401A6001225B469A40A3681A42FCD032
:10192000C1E7C04600800040F8260020F0B54646DA
:101930004F46D646C0B51F00344B44009C46241881
:10194000A4006444636888461600FF2B02D88023F5
:101950005B006360031FDBB29A46012B30D9C023C2
:1019600080229B01E31812011A60294B8500595906
:10197000994600291BD1226876017240E026802317
:10198000164052465B01E3181E60012A30D98023BD
:1019900080229B01E31812011A6080235B006360C0
:1019A0004B465F51E0BCBA46B146A846F0BD586907
:1019B00000F094FA431C5800C0180338FDD2DAE74F
:1019C0004346012BCBD1C02303229B01E3181A60AD
:1019D000023AA3681A42FCD0E023226876015640FE
:1019E0001E4080230A4A5B019146E3181E60850071
:1019F00042462168514003220A401A6001234246B0
:101A00009340A2681342FCD0C1E7C046008000406A
:101A1000F8260020014B8000C0587047F8260020AF
:101A2000F8B5040020481D0017000E0000F056FA1B
:101A30000100380000F052FA069B29041B031943E9
:101A40002368002B1EDB194B194DE21853425A41F3
:101A500080235B019C461203164B62441A60164BAE
:101A60001A6017002B689F43FBD1144B2660E218C5
:101A70002123A06013602368002BFCDA0823E160B7
:101A80001360F8BD3F2322681340B342DBD1A36843
:101A90001B051B0D8342D6D1EE22E368D202134010
:101AA0008B42D0D1EDE7C046001BB7000040FDBF20
:101AB00008C0004000E0004000F00040043000009A
:101AC00010B5140080221B4BD2051A6000281AD0D2
:101AD0000123194A1843194BDA61194A42401A6224
:101AE000596298628022134BD2051A601549164A32
:101AF0001160E022D2041A60002C07D18022134B1F
:101B000012061A6010BD0D4BD861EBE763011B1B79
:101B10009A008023121912015B049A4200D30C4AE6
:101B20000C4B1A60054B5A608022084BD2051A6094
:101B3000E8E7C04600B00540D3C007B000800540CC
:101B40002D3FF84FFCFF01000820014000A0054098
:101B5000FFFFFF00842B00208023024A9B000B43E1
:101B6000D362704700800540142310B50100188827
:101B700004331B88984710BD162310B50100188840
:101B800002331B88984710BDF8B54746CE4680B54E
:101B90000F1E19D014239946043304000025012692
:101BA00098464B461888434621681B88984701C4CD
:101BB000431E9841013540420640AF42F1D130000A
:101BC000C0BCB946B046F8BD0126F8E7142370B58D
:101BD0000400188804331B880D000549984703004A
:101BE0000020002C01DB0130A04029009847C046AE
:101BF00055420000AA23064A1B0113608D235B0097
:101C0000D3600449044B19605368002BFCDA704719
:101C10000040024000B0FA00006002407047C04639
:101C200010B50148FEF7C4FE3CD0001070B5074D5A
:101C3000074EB54209D20024013E761BB60808CDF6
:101C4000984723000134B342F9D170BDD0CD0010C4
:101C50000CCE0010054B064A06491A60064A074B8F
:101C60001A6010000B689843FBD1704700E00040F9
:101C7000BFCDFBFE08C00040FE7F3C0000F00040EE
:101C8000044BDB6C002B03D18022034BD2021A6081
:101C90007047C046000011504C201150044A054BBB
:101CA0001A60054A1368DB018033FBD17047C046D8
:101CB000FFFFFF0100F0004008C000404022034B3E
:101CC0009A675A671A67DA667047C04600F00140A3
:101CD00010B5FEF711FF10BDF8B52D492D4C2E4D56
:101CE000641AA6103200302E00D93022280092004B
:101CF00001F07CF8BC2C41D80123711C08009C46E3
:101D0000264A30293DD92F272C196407E30FBF1B22
:101D1000052F19D9302917D8002B36D0B1006A50B9
:101D20006146CC1AF3189B006108EB18C900C9186A
:101D30001A605A6008338B42FAD10123210099437B
:101D400046188C421AD0711CB300EA50302915D0C5
:101D500089006A50B31C2E2E10D09B00EA50F31C51
:101D60002D2E0BD09B00EA50331D2C2E06D09B004D
:101D7000EA50731D2B2E01D09B00EA50084B9D604A
:101D8000F8BD2F339B1B9C46BDE73000C8E7C0461B
:101D900000010010C001001000000020C10100106F
:101DA00000ED00E0002310B5294C82B0A367FFF7D7
:101DB00021FF0122274B1A60636C012BFCD1032207
:101DC000254B1A60224A936B012BFCD101330093FF
:101DD0000121224A22480433FFF722FE0523012174
:101DE0000093204A2048FFF71BFE00220221042016
:101DF0001E4BFFF79BFD0022012105201C4BFFF726
:101E000095FD0022002107201A4BFFF78FFD0022CD
:101E100000210820174BFFF789FD8023DB0000938A
:101E2000002200210920134BFFF706FD0022104B72
:101E300000210620FFF77AFD0420FFF7EBFD0E4995
:101E400000F04CF801000020FFF786FE02B010BD44
:101E5000008000403CB0004030B00040002F685986
:101E600000800240008C864700C00240001BB70083
:101E700040597307006CDC0240420F000148042106
:101E8000014B1847D0110020891B0010124A936F94
:101E90009B0815D29066D166002905D0FFE7FFE7C1
:101EA000FFE7516F106F704704B580210906C21714
:101EB0005140002800D0C8430AF03AFF002104BD79
:101EC000F0B5146E556E576F166FFFF7E3FF14668B
:101ED000556657671667F0BD000000D0114A936F32
:101EE0009B0813D210665166002905D0FFE7FFE773
:101EF000FFE7516F106F704704B5002801D0002034
:101F0000C0430AF015FF002104BDC046F0B5146EB1
:101F1000556E576F166FFFF7E5FF146655665767E6
:101F20001667F0BD000000D094464A4A926F9208AE
:101F3000624601D228E0C046F0B5464E346E756E5A
:101F4000776F366F00F020F89446424A1466556663
:101F5000576716676246F0BD94463E4A926F9208F4
:101F6000624601D254E0C046F0B53A4E346E756E0A
:101F7000776F366F00F04CF89446364A1466556613
:101F8000576716676246F0BD002B24DB11D000298D
:101F90003EDA00B5C943404200D1013100F038F8C3
:101FA000C943404200D10131DB43524200D10133E9
:101FB00000BD002AEBD1002801D1002905D0002066
:101FC000C90FC90701D1C043410800B50AF0A8FEF6
:101FD0000022002300BD00B500290ADBDB4352428A
:101FE00000D1013300F014F8C943404200D101315F
:101FF00000BDC943404200D10131DB43524200D110
:10200000013300F005F8DB43524200D1013300BD3B
:10201000002923D1002B18D1002A0CD0BC460D4F2B
:1020200038667A6600210023FFE7FFE7FFE77A6F53
:10203000386F67467047002801D00748010000B597
:102040000AF06EFE0022002300BD02000B000020FB
:1020500000217047000000D0FFFFFFFF002B00D0E1
:10206000BFE0130C28D1002AE7D080B4114F3966A5
:102070007A66FFE7FFE730B4040C7B6F396F1B040F
:1020800023433B667A66FFE7FFE7FFE7C04684B27B
:102090007B6F3D6F1B0423433B667A66FFE7FFE7D8
:1020A000C04600232C042D0C7A6F386F001969414B
:1020B000B0BC7047000000D0F0B594460025140E67
:1020C00001D112020835140F01D112010435940F09
:1020D00001D192000235D40F01D152000135D40B49
:1020E0000134254F7C66254C3C660E0C93B2FFE70D
:1020F000FFE7FFE73C6F6643360C7703BE4673434A
:10210000DF0B5B04C01AB941130C7343DB18C91A07
:10211000CE086643360CB64493B273431F0F1B01BF
:10212000C01AB941130C73431F0B1B05C01AB941E8
:10213000860D8F023E436643360C092D24DB520A7E
:102140007243801A7703460A6643360C16235B1BDC
:10215000DE40DF40BF1964466643821B704604358B
:1021600006330100D940A840C01900D30131A24272
:1021700006D20023F0BD0000000000D0FFFFFFFFEB
:10218000121B0130F3D3F1E709277F1BFE406446A1
:10219000A2B27243801A00D20139220C7243130C8E
:1021A0001204821A99410B0070460435133701005E
:1021B000F940A840801900D30131002B02D1A2427E
:1021C0000AD2F0BD013000D30131121BFAD2013B1B
:1021D000F8D1A24200D2F0BD013000D30131121B70
:1021E000F7E7F0B51C0C00D080E00CB400251C0A09
:1021F00004D11B02160E3343120208351C0B04D106
:102200001B01160F3343120104359C0B04D19B00B4
:10221000960F334392000235DC0B02D192185B41DA
:1022200001351C00971864410134464F7C66464CCA
:102230003C660E0CFFE7FFE7FFE7C0463C6F6643D6
:10224000360C7703BE4697B27743C01B00D20139E4
:10225000C01B00D201399FB27743C91BC91B170CA1
:1022600077437E04FF0B801BB941CE086643360CD2
:102270000C2D33DBB644120B1F053A431B0B97B2F0
:102280007743C01B00D201399FB27743C91B170C9B
:1022900077433E043F0C801BB941860D8F023E43BD
:1022A000664329277F1BFE400C3D7746AF40BF1990
:1022B00030BCA2B2ABB272437343801A9941220C74
:1022C0007243130C1204801A994102000B0001376B
:1022D000001BA941F9D2781E0021F0BD0C277F1BFD
:1022E000FE4077467F0BAF40FF19E0E700245D1CFE
:1022F00007D0144F7D663966FFE7FFE7FFE7FFE78A
:102300003C6F95B29EB265436643401BB141150CCC
:102310001E0C6543664336042F0C3E432D04401BC0
:10232000B141994204D202000B0020000021F0BD0F
:1023300001D19042F7D3801A994101349942F2D3E6
:10234000F6E70000000000D0FFFFFFFF48404140DB
:10235000484018B41B4B5B68FC46019308BD04DF82
:102360008B26001018B4174B1B68FC46019308BD60
:1023700000DF952600109446134A926F920809D206
:10238000624618B40F4BDB68FC46019308BD0CDFB6
:102390004D2900100C4AF0B5146E556E576F166F2C
:1023A0006246FFF7EEFF084A1466556657671667E0
:1023B000F0BD18B4034B9B68FC46019308BD08DFD1
:1023C000F1270010701D0020000000D0FFB5504024
:1023D0004240504059404B40594000E0FFB5154F36
:1023E0004C00640D03D0BC4204D10C0314D800206F
:1023F000090D09055C00640D03D0BC4204D11C0327
:102400000AD800221B0D1B0501264B4009D44B4066
:1024100003D58B4200D18242FFBD9942FCD190424C
:10242000FFBD0B43DB1803431343F5D0C9434918E1
:10243000FFBD0000FF07000000B5FFF7CFFF01D090
:10244000002000BD012000BD00B5FFF7C7FF80419F
:1024500000BDC04600B5FFF7C1FF01D9002000BD97
:10246000012000BD00B5FFF7B1FF01D9002000BD7C
:10247000012000BD00B5FFF7A9FF804100BD01208C
:1024800040054A00121804D85A00121801D800203A
:1024900070470120704700000021002805D17047D7
:1024A000C1174840401AFAD0C90713B5064B1B683C
:1024B00098470CBC441CA2401005120B0349091B91
:1024C00009051943114310BDAC2B00201F04000067
:1024D00010B54C00620D8023D218DB00D21A5B05C8
:1024E0007E2A10DD9E3A13DACC17090349081943F6
:1024F0005242D140640001341532202A05DAD0401E
:102500000843604310BD002010BD0846604310BD65
:10251000C80FC018013810BD18B4044B5B6AFC46E4
:10252000019308BD24DFFD2A00100000701D00206B
:1025300018B4044BDB6DFC46019308BD5CDF092C2D
:1025400000100000701D0020C94211D300B54900E1
:102550004908002200F018F8002904D40022404263
:102560008A41114600BD80210906002000BD0000FF
:1025700018B4044BDB6EFC46019308BD6CDF0B2BDB
:1025800000100000701D002018B4044B9B6FFC4627
:10259000019308BD78DF272B00100000701D00207C
:1025A00018B4044BDB6FFC46019308BD7CDF952B10
:1025B00000100000701D0020132370B51D78012D40
:1025C00019D014DD1E48FFF7D7FA06001D48FFF7A3
:1025D000D3FA1D4C80223100200000F007FC022DB0
:1025E00006D01A48FFF7C0FA194B186070BD164C98
:1025F000184BA364F5E7174B134C23606360A3608B
:10260000E36023616361A361E36123626362A362A8
:10261000E36223636363A363E36323646364A36488
:10262000E36423656365A365E36523666366A36668
:10263000E36623676367A367E367A364D1E7C046E4
:102640005344000053460000701D00204C3300002E
:10265000AC2B00205926001007B5604601880A0AF5
:102660000230DF2AFAD1C9B2820804D30288408836
:102670000004104300E00068014A5050039007BD79
:10268000701D00200FB403BC0CBCF0B50124E4079E
:10269000634000E0F0B50C0DCF0F661E3605891BB8
:1026A000640503D3C943404200D30131640D03D014
:1026B000661CF60A07D0E41B00207F00791C8907FE
:1026C0008912803C24031D0DDF0F6E1E36059B1BF7
:1026D0006D0503D3DB43524200D301336D0D03D0AC
:1026E0006E1CF60A07D0ED1B00227F007B1C9B07A7
:1026F0009B12803D2D032F1B661B58D4A446202E11
:1027000046DA20371400BC401D00BD40F240334182
:102710002A4380185941CB0F05D0C943C04300223A
:1027200064425041514162464D0D28D10D0D07D1F3
:1027300000281FD0241940414941013A0D0DF9D01C
:10274000640006D3013000D30131002C01D14008D0
:102750004000013A0BD4941CE40A04D11205114440
:10276000DB071944F0BDD907204B194300E0D90716
:102770000020F0BD0029DDD1002CDBD1F0BD0132FD
:10278000C6074008CD0728434908002EE1D0D9E705
:102790003C2E29DA203E40371400BC4000D00124F2
:1027A000F24014431A00BB401C43D317ACE7AC46BD
:1027B000202F08DA20360400B4400D00B540F84060
:1027C00039412843A5E73C2F0CDA203F403604006E
:1027D000B44000D00124F84004430800B1400C4349
:1027E000C117EAE710001900002494E70000F07F09
:1027F000F0B50C0D661E3605891BE60A6405640DEE
:1028000002D0651CED0A04D0002001210905803C9E
:102810002403A4461C0D671E3F05DB1BE70A640565
:10282000640D02D0651CED0A04D0002201231B05B3
:10283000803C24037740644497B484B296B27443D6
:10284000070C7E43150C6F4380B26843361802D3E1
:10285000012000043F183004350C00197D418446E6
:1028600088B29AB250430C0C62431F0C7C438EB268
:102870007E43921902D301263604A4191604170CBC
:102880003618674101BC81B29AB25143040C6243CD
:102890001B0C5C4380B25843121802D30120000481
:1028A00024181004130C401863412D185E410020B9
:1028B000474106BC88B293B258430C0C6343120CD8
:1028C000544389B251435B1802D3012109046418AF
:1028D00019041A0C091862416D185641002047412D
:1028E00018BCF902720D1143F0026A0D1043ED029B
:1028F0000A0D03D16D1940414941013B124E9B1B0A
:102900007600B3420ED26D0007D30130002671412C
:102910006646354301D1400840001B05C918E4074D
:102920002144F0BD0BDA013306D1013004D101316D
:102930004F0D01D04908F2E7E1070020F0BD013654
:1029400031050020EBE70000FF030000F0B51C0D8F
:10295000671E3F05DB1BE70A6405640D02D0661C99
:10296000F60A04D0002201231B05803C2403D02555
:102970002D060026F6432E661E096E66CE0FF6194A
:10298000B44649004F0D02D07E1CF60A03D0002049
:102990000021403F3F033E1BB600B444013F7F058A
:1029A000C91B49082E6F013676089C02950D2543F8
:1029B0007543ED137543AD1301356D10F603761BAA
:1029C0000CB4CC02450D2C43A2B2B3B25A43270C2F
:1029D0007B43350C6F43A4B26C431B1902D3012413
:1029E00024043F191C041D0CA4187D4124196D41B9
:1029F000009A91B2ACB26143170C7C432B0C5F433D
:102A000092B25A43A41802D301221204BF1822041E
:102A1000230C52187B41019C6C431B19520ED901A7
:102A20000A434401A01A81B2B2B2514303145A437B
:102A3000360C734387B27743D617D21900277E41ED
:102A400036049B191704160C7F185E417316ED1897
:102A5000F301002680337541A90F06D16400690A8D
:102A6000E8055B0A184309D22FE00422944480331E
:102A70007541A90AA8059B0A184326D3404149413C
:102A80002404009A019B0D005543641B4343E41A40
:102A900095B286B27543170C7E43030C5F4392B226
:102AA0005A43B61802D301221204BF183204330C61
:102AB00052197B4152429C41002C02D40022013029
:102AC00051414008CA071043490802B06246D7077F
:102AD0009210084BD218084B9A4203D2120589185B
:102AE000C919F0BD0020002A01DC3900F0BD013316
:102AF0001905F5E7FD030000FE070000002200B500
:102B0000203200F010F8080000BD002200B500F0EF
:102B10000CF8CA179A4200D100BDD8430121C90759
:102B2000414000BD00220B150AD410B5944600F0B8
:102B3000A7F81414013400DA0021CB17144C2047F5
:102B40000020002170476244343A0CD40C2A07DA82
:102B500004009140904052422032D440214310BDA5
:102B6000D843D94310BD203207D40C46944052427A
:102B700020321141D040204310BD0800C917203237
:102B800003D452422032104110BD1800190010BD6C
:102B9000472B00104A00520D144BD21A13DDFF2AA6
:102BA0001EDAD205CB0FDB071A43C300400F09031F
:102BB000490A084310435B0001D301D0013070473C
:102BC0004308FBD2704702D0C80FC00770470A0302
:102BD00012130132F8D1420F072AF5D1012200E089
:102BE000FF22C80F00028018C00570478003000054
:102BF00000210A00002104E000210A00C11704E0BE
:102C00000022002306E0C0460022CB17584059405E
:102C1000C01A994130B5184CA21A002903D10100FD
:102C200010D00020203A4C1512D104D2013A0018DD
:102C300049414C0DFAD3114CA24204D21205891815
:102C4000DB07C91830BDD243520D00200021F5E743
:102C500003D4013A00184941FBD50B324405C00AA0
:102C60004D052843C90A640003D000246041614136
:102C7000E1E7E0D34408F8E732040000FE07000073
:102C80000A0DCC0F531E1B05C91A520503D3C943A5
:102C9000404200D30131520D03D0531CDB0A07D050
:102CA000121B00206400611C89078912803A1203FC
:102CB000014BD21A70470000FF0300005143434309
:102CC000C9188C46110C83B24B4310B4040C6143F9
:102CD00092B280B2504362431C041B0C001910BC1A
:102CE00059411304120CC01851416144704700004F
:102CF000132310B512481C78FEF73EFF0100012C8B
:102D00000AD003DD80220F4800F070F80E48FEF76D
:102D10002BFF0E4B186010BD0A4C5422200000F00F
:102D200065F80B4B6365A365E36523666366A3667D
:102D3000E36623676367A367E3672362E361E5E70D
:102D400053460000701E00204C330000AC2B0020C6
:102D5000552D001007B5604601880A0A0230DF2AA7
:102D6000FAD1C9B2820804D3028840880004104313
:102D700000E00068014A5050039007BD701E00201B
:102D800010B5040004F04AFE002804D0034B0419D7
:102D90009C4200D810BD0248FDF70AFE0000042046
:102DA00048D0001010B50C0005F01EF9002804D022
:102DB000034B04199C4200D810BD0248FDF7F8FDF2
:102DC0000000042048D0001010B504F031FE10BD02
:102DD00001480421014B1847E0110020891B001015
:102DE000014B1B6818470000E0110020014B5B6895
:102DF00018470000E01100209A4200D28854704722
:102E00007047C046F8B557464E464546DE46E0B5E3
:102E100099460A9B07009A460D9B884693461500E3
:102E20000B9E9B0710D10C9B9E420DD29D1B140044
:102E30000E005D4422004B46013431002020B8478B
:102E4000A542F7D1B0460B9E002E27D044467519F7
:102E50005346AA1B013E985D21004B46B847002E01
:102E6000F6D123002C0098460D9B9B070FD55B469F
:102E7000E51A0C9BAB420AD94646984622004B46BF
:102E8000310020200135B8470134A845F6D820008C
:102E9000F0BCBB46B246A946A046F8BD2C00E3E70D
:102EA000F0B54F464646D646C0B584B098460EAB00
:102EB0001B78129F994694460D9C109B119EBA0751
:102EC00025D4002E4BD19C4200D3BFE001223A40D2
:102ED00092461F2C00D9B8E00C9A551E302201E012
:102EE000202C03D001342A55A342F9D85246002A97
:102EF0000DD0A6420BD9202C44D00C9A551E30225E
:102F000001E0202C3ED001342A55B442F9D1FA0612
:102F10004DD57A053FD4002C39D10F9B102B00D111
:102F200079E00F9B022B00D18AE030230C9A012418
:102F300013704B46002B3FD02D230C9A13550134B0
:102F40000C9B624600930397434602960194FFF759
:102F500059FF04B0E0BCBA46B146A846F0BD012214
:102F600015003D40AA463A422FD04A46002A02D1D7
:102F70000C323A4200D0013E9C42BAD21F2CABD94F
:102F8000202E27D92024FA06DAD57A0503D4A342C5
:102F90002DD0A6422BD00F9B102B32D0022B20D04D
:102FA000202CCDD030220C9B1B191A700134202C00
:102FB000C6D04B46002BBFD17B070DD43B07BFD5F6
:102FC00020230C9A13550134BAE79C429FD21F2C40
:102FD00000D881E720249AE72B230C9A135501345B
:102FE000AEE7202CACD00C9B1B1901343AE0631ED9
:102FF000012C92D00F9A102A2AD0022A2FD01C001E
:10300000D0E7BB060ED4202C9AD00C9B1A190134A1
:1030100078231370C4E7BB060DD478230C9A0124DF
:103020001370BFE7202C00D18AE758220C9B1B1994
:103030001A700134B4E758230C9A01241370B1E7D5
:103040000C9A603301241370ACE7202400265EE75D
:10305000023CBA06E9D40C9A12191C00D8E70C9A63
:103060009246534462221A709AE7C04610B500286F
:1030700000D110BD01F0A6FBFBE7C0460B0010B568
:10308000002802D049681B68984710BDF0B5DE469D
:1030900057464E464546E0B59BB09B46249B894625
:1030A0009846259B0B900C924046424619009A4642
:1030B000FFF7E5F9002800D0D8E00122404651464C
:1030C000774B5242FFF7D6F9002800D0CEE001221C
:1030D00040465146734B5242FFF7B6F9002800D0E4
:1030E000C4E00022002340465146FFF7ADF9002816
:1030F00000D0B9E1424653460A9209938023289AA8
:10310000DB001A400E92289A1A4201D10623269318
:103110000A9A099B1600134300D0C7E0289B00259C
:1031200000261B0500D49BE100230D93269A0D9BDE
:103130009A4200DC9FE1D01A431E26938023289AEE
:10314000DB001A430023002728920D93279B0024BD
:10315000BB4200D9DC1B0223289A1A400E92289AFF
:10316000134203D07B427B415B421C400D9B002BF2
:1031700007D00A9809992A003300FFF7FCF80A9053
:1031800009910022002340465146FFF75DF90028CF
:1031900005D0802000068446099961440991289A47
:1031A000414B0B9D13400493269B0A9A0293099B63
:1031B00003940092019349465B4628000C9A00F064
:1031C0008BF90400002F62D0289B220098061F2351
:1031D000C0179843631C984649465B466530A8472C
:1031E0000D9B0025DA179C18DB0F9A465440013FCF
:1031F00001E0202D13D00AAA94461F232000634427
:103200000A2101355E19FEF769FE30313170200068
:103210000A21FEF763FE26000400092EE9D80523E3
:103220000693002304930A330393534605970B9F99
:10323000029312AB009342465B4649463800019523
:10324000FFF72EFE0E9B0400002B20D00C9BC51A0E
:10325000279BAB421BD91E0022005B46494620201B
:103260000135B8470134AE42F6D810E0289B4246FB
:103270000493279B49460393269B0B98029353463E
:10328000009201935B460C9A00F026F9040020009E
:103290001BB0F0BCBB46B246A946A046F0BDC04636
:1032A000FFFFEF7FFFFFEFFFFFF7FFFF734B099F6C
:1032B0009C467800400D6044FFF7F2F8704A714B6D
:1032C000FFF777F8704A714BFFF74CF83B03704AF1
:1032D0001B0B1A4304000D00300011006D4B00223F
:1032E000FFF737F86C4A6D4BFFF763F802000B00ED
:1032F00020002900FFF736F8FFF7EAF80D90FFF7F6
:10330000CFF8674A674B04000D00FFF752F8002220
:10331000654BFFF727F8FFF7DBF8644A0600644BBC
:1033200020002900FFF745F8040030000D000F963B
:10333000FFF7B6F85F4A604BFFF73BF802000B005F
:1033400020002900FFF705F802000B0006000F001F
:10335000FFF72FF8320004000D003B003000390069
:10336000FFF700F8002210901191544B2000290023
:10337000FFF701F80022524BFEF7F4FF02000B00AA
:1033800020002900FEF7F7FF00224E4BFEF7EAFF70
:1033900002000B0020002900FEF7EDFF0D00802148
:1033A000040032003B000020C905FEF7D2FF0200F6
:1033B0000B0020002900FEF7D5FF02000B0010983B
:1033C0001199FEF7D8FF0022314BFEF7CBFF3E4BA1
:1033D0000F9C9C46644400222305FEF7EAFF05008B
:1033E0000E0002000B000A980999FFF72DF800283B
:1033F0000AD00D9B2800013B31000D930022304B79
:10340000FEF7B9FF05000E00C6270D992B006331AA
:103410008F42BF4128997F420437090500D495E6C1
:10342000334300D182E6099C284A2100284B0A98A0
:10343000FFF718F8002808D000222100254B0A9831
:10344000FFF702F8002800D070E6269B002B00D181
:103450007CE60E9B5A1E9341269AD31A269375E654
:10346000002304270D9371E643460A9380231B062D
:103470005344099342E6002326935FE601FCFFFFD5
:10348000FB799F501344D33FB3C8608B288AC63F53
:103490000000F03F0000F83F61436F63A787D23F11
:1034A00071A379094F930A400000E03F1655B5BB60
:1034B000B16B0240EF39FAFE422EE63F00002C408D
:1034C0000000244000001840FF0300002D431CEBC7
:1034D000E2361A3F80842E41F0B54E46DE4657460E
:1034E0004546E0B597B09946209E219F229B834692
:1034F000984607910C923B00320030003900FEF7ED
:10350000BEFF002800D0A9E1012230003900CA4BDB
:103510005242FEF799FF002800D0E1E0012230007E
:103520003900C64B5242FEF7A5FF002800D0B7E095
:10353000002230003900C24BFEF79CFF002800D06B
:1035400099E0002230003900BE4BFEF77DFF0028D5
:1035500000D090E00022002330003900FEF774FF15
:10356000002800D0B1E000230D93249B5B0501D41B
:103570000623984608AB9C46172200243023414678
:10358000624404E0013413550139202C01D009298B
:10359000F8D8884630003900FEF79AFF4346DA0033
:1035A000A94B05009B181A685B6808920993FEF7FF
:1035B00077FF02000B0030003900FEF7CAFE089AC0
:1035C000099BFEF7F6FE0A900B91FEF7A5FF8246D7
:1035D000FEF762FF02000B000A980B99FEF7B9FE96
:1035E00000229A4B0A900B91FEF744FF002800D16D
:1035F000C0E001239C46E2445046FEF74DFF020026
:103600000B0008980999FEF725FF002802D0002337
:103610009A4601354346002B6AD008AB17269C46D4
:1036200008956644554614E001235B4243440A2151
:1036300028009A46FEF752FC0134303137193970B0
:1036400028000A21FEF74AFC092D00D8D0E0D04618
:103650000500202CE8D10EAB98460323249A134092
:10366000012B00D196E02023249A01930392239A00
:10367000434602921EE0249B58460493239B0096E7
:103680000197039343460C9A029307994B46FFF721
:10369000FDFC17B0F0BCBB46B246A946A046F0BD43
:1036A000249B5B070ED40322694B2499019203915A
:1036B00023990291009358464B460C9A0799FFF7BD
:1036C000A1FBE6E70422634BEFE73B00320000205A
:1036D0000021FEF73EFE012306000F000D9344E794
:1036E000249B0393239B0293042301935A4BE1E70A
:1036F0002800FEF7D5FE02000B0030003900FEF76F
:1037000028FE524B002206000F00FEF79DFE0EAB76
:10371000984600280AD10022300039004B4BFEF7B2
:10372000A9FE002802D1EB0700D50135202C94D04A
:1037300008AA94461723280063440A2101341E195D
:10374000FEF7A4FB3031280031700A21FEF79EFB02
:10375000051EEBD10323249A1340012B1BD0202CF0
:1037600000D180E70D9B002B35D02D224146631CF4
:103770000A5579E700220A980B99344BFEF764FE4C
:10378000002800D046E75346002B51D101239C4628
:10379000E2443FE72024239B002BE0D00D9B002B2D
:1037A00003D1249A0C33134202D0239B013B239371
:1037B000239BA342D3D908AB9C46172230236244F3
:1037C000202C00D14FE72399013413558C42C6D0E9
:1037D000202CF8D147E7249B5B0724D4249A2300AC
:1037E000120700D440E72022414601330A553BE747
:1037F0005746089D202C00D12DE72200302140465D
:10380000002F09D00132B154202A00D123E7D3433D
:103810001B191B18002BF5D10EAB98462E234146E1
:10382000541C8B5482E72B224146631C0A551BE72C
:10383000DB0700D4EEE6A9E7FFFFEFFFFFFFEF7F16
:1038400065CDCD4165CDCDC1E8D200100000E03F8F
:10385000ECD00010F0D00010FCD00010249B03939B
:10386000239B029303230193004B23E7F8D000101E
:10387000F0B5DE464E4657464546E0B59FB01C00C3
:10388000289B91460993C94AC94B8B4608901A60F8
:10389000002900D118E2002320789A46002800D1A0
:1038A0001AE226001D005C460AE02A006F1C4B4607
:1038B000089D2100A8473D0001363078002870D0CF
:1038C0002528F2D110239B46083B9A46043B984694
:1038D000023B00219C46721C107816000300203B1E
:1038E000DBB2102B03D8B34F9B00FB589F4603005D
:1038F000303B092B32D900230A932A2868D00023B1
:1039000098462E283ED00300683BDBB2122B1CD811
:10391000A94A9B00D3589F46012301321943DBE794
:10392000634601321943D7E7434601321943D3E7CF
:103930005B4601321943CFE7534601321943CBE7C7
:1039400080235B007078194301360300253BDBB20E
:10395000532BAAD8994A9B00D3589F4600270300AF
:10396000B800C01901364000C018337830381A004A
:10397000303A0700092AF3D90A9018000023984624
:103980002E28C0D180237078DB0019430300303B20
:10399000721C092B00D8A1E12A2800D1B2E116003F
:1039A000B1E7A346AA462C00D14503D801235B42C8
:1039B0004B449A464B46524659460020089DA8471C
:1039C00020001FB0F0BCBB46B246A946A046F0BDE1
:1039D000099B40CB0A96002E03DB50780993561CB6
:1039E0008DE72838014370420A9009935078561C9D
:1039F00085E7782800D1DFE1582800D14CE26F2814
:103A000000D14FE3622801D100F030FC10230A00FE
:103A10009A430B92692801D000F0A9FC0A230C9369
:103A20004B0500D5D0E10B9A802311009B00194073
:103A30008B461A4200D0A1E2802311005B0019409E
:103A40008A461A4200D0B6E313005B0600D5EDE2C9
:103A5000130009991B0601D400F076FC08C91BB2BB
:103A6000D8171A18424092B209919346DA0F12926F
:103A7000002B09D1802310220B99DB000B409143CE
:103A80000B91002B00D0E4E20B9A6123920600D543
:103A900041230EA91F228C46DBB262440A3B5F46DB
:103AA0001395A34655460C9CB2460D9316000AE0AA
:103AB0003033DBB201357355A74200D2EDE2202D41
:103AC00000D1EAE2070021003800FEF707FACBB286
:103AD0000929EDD90D9A94466344DBB2EAE78023C5
:103AE0009B007078194301362FE77078682800D161
:103AF000CDE180230136194327E770786C2800D187
:103B0000BFE180235B00194301361EE7462800D140
:103B10009BE10722099B0491073393430A9A1900FA
:103B20000392424602920CC90898009201930991AF
:103B30002A004B462100FFF7CFFC01360500BCE60A
:103B40002A006F1C4B46089D21002520A8470136FE
:103B50003D00B2E68B0700D4ADE1099B2A009A46EE
:103B60006B1C9846534601CB21009A46089F4B4652
:103B7000C0B2B8470A9B9C466544012B00D886E238
:103B8000089B4746B04626004C4699463A0023001B
:103B9000013731002020C847AF42F7D1A146534634
:103BA000340046460993013687E6C0467138001056
:103BB000802B002004D1001048D1001094D10010B7
:103BC000099B04CB9B4643460992002B00D1C6E0DB
:103BD00013789C46002B00D1BDE34346013B099A74
:103BE0000133D0180A9F130001E0834203D05A78B2
:103BF0000133002AF9D1099A0A979B1A0B93802363
:103C00000A00DB001A400C92194204D00B9B43457A
:103C100001D943460B9302231A000A400D920B422E
:103C200000D187E16046002800D168E10C9B002BA1
:103C300000D10DE1A844C246099B57465B1B98463C
:103C4000089BB2462A0026004C46994609E023000C
:103C50003100551CC8474346585D002800D126E175
:103C60002A009742F3D1A1463D00340056460D9BF1
:103C7000002B00D043E15B46013609931DE6099B0A
:103C80001A0008CA9246002B48D0212211438B46C5
:103C90000EA884461F216144099500220F27A446DF
:103CA0000D0002E0202A0CD00B003C001C4020003C
:103CB0003730092C00D807380132A85419090F2BC6
:103CC000F0D86446099D32E0DC4B2078089300234D
:103CD0009A46002800D0E4E5002465E64346060045
:103CE0000A9F9800C018013240008019167803001E
:103CF00030003038303B0928F3D9300098461600A0
:103D00000A9700E6099B023604CB9046D243404610
:103D1000D2171040804609933078F4E5102208004D
:103D2000904311321043834600224905B0D55B46CB
:103D3000069308230593434604931023039300231B
:103D4000029316AB019200932A004B46210008987B
:103D5000FFF7A6F85346050001360993ADE5137841
:103D60009C46002B00D1F7E202235B4237E7202379
:103D700002009A43472A04D180231B0119430223DE
:103D80009843452801D1202319430722099B049118
:103D9000073393430A9A19000392424602920CC9D0
:103DA00008980092019309912A004B462100FFF7E1
:103DB0006DF90136050080E510230C930C230A00F1
:103DC0009A430B924B0503D501230B9A9A430B920E
:103DD000692800D127E6642800D124E60B9A8023C5
:103DE00011009B0019408B461A4200D066E18023E7
:103DF00011005B0019408A461A4200D039E21300D4
:103E00005B0600D53CE113001B0600D4A6E2099B2B
:103E100004CB1204120C934609935B46002B00D08E
:103E20009AE10B9A1033110099430B91520500D47B
:103E300092E100239A460B9B06930A9B0593434607
:103E400004930C9B039300230CE12023194360E6A9
:103E5000099B0A9A5B1B98464B4691461F00B24647
:103E60002600089C2A003B003100A047434601354C
:103E7000585D0028F6D14A463400B94656460A92A3
:103E8000F5E6C0239B00B078194302365DE5C023F8
:103E9000B0781943023658E50C230A009A431433CC
:103EA0001A43103B0B920C934B058DD496E7A14619
:103EB00034005646DBE60A9A012A00D853E26B1E0C
:103EC0009F18089BB04626004C4699462A002300BE
:103ED000013531002020C847BD42F7D1A14634004A
:103EE0004646099B3A0001CB210098467D1C4B4673
:103EF000089FC0B2B847434601360993DDE40B9BE7
:103F00000A9AA8469A4200D8B5E694466544ED1A46
:103F1000089B4746B04626004C4699463A00230087
:103F2000013731002020C847AF42F7D1A146340005
:103F30004646A0E60B9A0A99531C914200D814E217
:103F40004B199B1A1F00089BB24626004C46994607
:103F50002A002300013531002020C847BD42F7D197
:103F60000A9BA14601330B93099B34001B785646EC
:103F70009C466046002800D058E67CE60722099B54
:103F800007339343013294469C4462465F6809922A
:103F90001A68FB171093119310981199030053405E
:103FA0000E930B007B400F9394460E9A0F9B121AB0
:103FB0008B410E920F93FB0F6246129300233A43FC
:103FC0009B463DD00B9A6123920600D541230022E7
:103FD000DBB20EA90A3B8C4692460D9343461F3234
:103FE00062441395159655460E9E0F9FA246904625
:103FF0000C9C14930CE03032D2B2434601355A5532
:10400000BB4500D18AE1202D00D18AE106000F00D6
:104010002200002330003900FDF79EFFD2B2092AAA
:10402000E9D90D9B9C466244D2B2E6E7FF23099989
:1040300004C913401A00099117E5C046012E00106B
:104040000B9A1033110099430B915205BAD50023F6
:104050009A460B9B06930A9B0593434604930C9B3D
:104060000393129B02935346019316AB2A000093CD
:1040700021004B460898FEF713FF013605001CE4AB
:10408000FF22099B02CB11408B460993C5E653469C
:10409000454609930136FFF710FC56465C46AA4692
:1040A000139DD6E708230C930B910B99642800D03D
:1040B00084E60B9B5B0500D586E6B4E40722099BEA
:1040C00007339343013294469C44624609921A682E
:1040D0005B6810009B4613005A46134307D10B9AA6
:1040E0001033110099430B91520500D5A1E60B9AAC
:1040F0006123920600D541230022DBB20EA90A3BC0
:104100008C4692460D9343461F3262445F46129599
:10411000A34655460400B24690460C9E13930DE00C
:104120003032D2B2434601355A550023BB4200D14A
:1041300000E1202D00D100E104000F003200002337
:1041400020003900FDF708FFD2B2092AE8D90D9BFB
:104150009C466244D2B2E5E70B9A6123920600D5F1
:104160004123DBB20EA90A3B1F228C460D9323008C
:1041700062445C461295170055469B46B2460C9E1B
:1041800008E03033DBB201357B55B4420ED3202D2D
:104190000CD0040031002000FDF7A0FECBB20929AD
:1041A000EFD90D9A94466344DBB2ECE756465C4681
:1041B000AA46129D3FE6099B1A0008CAD917139216
:1041C0005A184A409246DA0F1292002B08D18023E7
:1041D00010220B99DB000B4091430B91002B2BD14C
:1041E0000B9A6123920600D541230EAA1F279446FD
:1041F000DBB20A3B0D9567445D460993A3465446DE
:10420000B2460C9E08E03033DBB201357B55B44238
:104210000ED3202D0CD0040031002000FDF75EFEEF
:10422000CBB20929EFD9099A94466344DBB2ECE793
:1042300056465C46AB460D9D0B9B2A0006930A9B97
:1042400021000593434604930C9B08980393129B0B
:10425000013602935B46019316AB00934B46FEF783
:104260001FFE139B05000993FFF727FB02230C9306
:104270001AE7099B04CB92461293002A08D18023A7
:1042800010220B99DB000B4091430B91002B2BD19B
:104290000B9A6123920600D541230EAA1F2794464C
:1042A000DBB20A3B0D9567445D460993A34654462D
:1042B000B2460C9E08E03033DBB201357B55B44288
:1042C0000ED3202D0CD0040031002000FDF706FE97
:1042D000CBB20929EFD9099A94466344DBB2ECE7E3
:1042E00056465C46AB460D9D0B9B2A0006930A9BE7
:1042F00021000593434604930C9B089803930023E5
:1043000002935B46019316AB00934B46FEF7C8FD44
:10431000129B050009930136FFF7CFFAB44200D88B
:1043200071E6149B54460E960F97AA469846159E22
:10433000139D8EE6A64200D8FBE6139B5646984690
:10434000AA465C46129D76E508C9D8171A1842405D
:104350000991FFF78AFB00230B9350E4099B04CBE0
:104360009346099359E52F00BBE50B9301E6063B05
:104370000C939AE60EB4012210B585B007AC08CCB8
:1043800001000094524204480394FFF771FA05B00B
:1043900010BC08BC03B01847F92D001000B585B05B
:1043A0000391012102900093034813004A4202A99D
:1043B000FFF75EFA05B000BD7D3000100FB410B5F8
:1043C0000C4984B006AA08CA0C680392002C0BD0D2
:1043D000009201220848524202A9A047012004B0DD
:1043E00010BC08BC04B01847180000F037FA0020D1
:1043F000F5E7C046802B00206D30001010B5094A4B
:104400000300146884B0002C08D0012200910648F3
:10441000524203A9A047012004B010BD00F01EFACB
:104420000020F9E7802B00206D30001000BEFDE772
:10443000094A03001068002805D00849C3188B42B8
:1044400007D81360704706480449C31810608B42B0
:10445000F7D901204042F5E758270020000004204A
:10446000D82B002010B5FFF7E1FFC04610B50C00B7
:1044700082B01900002A0AD0064B01920093020074
:1044800023000548FFF79AFF0120FFF7CFFF034BFA
:104490001A00F2E738D3001048D3001058CE0010AD
:1044A00070B5FDF7C3FB074D074EB54209D2002496
:1044B000013E761BB60808CD984723000134B3426D
:1044C000F9D170BD0CCE001014CE0010030010B551
:1044D000080011001B68984710BDC046F0B546465D
:1044E0004F46D646C0B5437D80460E001700002BD0
:1044F00046D0002A3FDD4B1E9946244B012500245F
:1045000000209A460DE04B461B5D0D3B5A4253413D
:10451000325DDBB20A2A0BD02B00013401359F42F9
:104520001ADD002CEFD14346325D1B7D0A2AF3D100
:10453000002BF1D1A04204DA4346211A1B6830183F
:104540009847434650461B6802219847013428008B
:104550002B0001359F42E4DC874204DD4346391AD3
:104560001B6830189847F619013E33780D3B5A42C4
:10457000534142461375E0BCBA46B146A846F0BD69
:104580000368110030009847F5E7C04678D3001063
:10459000F0B5C6460C000968060000B5802906D0B3
:1045A0004B1C23606418267180BCB846F0BD0F4BCD
:1045B0001D68002D16D0231D98460D4F02E02D6971
:1045C000002D0FD02B68002BF9D03B68002B01D0B9
:1045D000AB42F4D1280041462268FFF77FFF2D69E6
:1045E000002DEFD101230021DBE7C0464827002042
:1045F00054270020F0B5DE4657464E464546E0B506
:1046000085B017001C0006000D00FDF7D1F800234F
:10461000314A12184B41002B59DB304908008A46B9
:1046200008F0AEFB01906B1C03D1300003F072FF69
:104630000500002C26D12A4B98462A4B1C68002CDA
:1046400015D0002F21D1284F02E02469002C0ED074
:104650002368002BF9D03B68002B01D0A342F4D192
:1046600020002A003100C0472469002CF0D1019BB2
:10467000002B28D1280005B0F0BCBB46B246A946A5
:10468000A046F0BD194B9846D7E7174B994602ABA9
:10469000DF1D0A239B4602E02469002CE7D0236833
:1046A000002BF9D04B461B68002B01D0A342F3D15D
:1046B0002A0031002000C0475B460122390020005B
:1046C0003B70C047E8E7504608F022FBD2E70122E2
:1046D000074B5242A1E7C04640420F00D81B0020C2
:1046E000CD4400104827002054270020DD4400104E
:1046F000FFFFFF7F0A4A1368002B05D10CE01A0068
:104700001B691032002B07D09842F8D1002902D142
:1047100003691360016170470029FCD01060FAE75B
:104720004827002010B500F04FFB10BDF0B5CE4675
:104730004746040080B583B0FDF73AF8260000270D
:1047400036184F41002F30DBB9461A4B1A4D9846A8
:1047500043461C68002C03D116E02469002C13D0BA
:104760002B68002B01D0A342F7D1A368002BF4D013
:10477000012101A898470028EFDD6B46187903B0A6
:10478000C0BCB946B046F0BD0C4B5A6A4A4507D387
:104790009B6AB34201D24A4502D002204042EEE772
:1047A00001200021FDF70EF8D2E70126044B7642E6
:1047B0009946CAE7482700205427002000400540BA
:1047C000FFFFFF7FF0B5CE46474680B583B06B460E
:1047D0000600DD1D2870FCF7EBFF00231A4A1218B3
:1047E0004B41002B2BDB19490800884608F0C8FA1A
:1047F000174B81461C68002C14D0164F02E0246928
:10480000002C0FD02368002BF9D03B68002B01D07F
:10481000A342F4D1200001222900FFF75FFE2469A2
:10482000002CEFD14B46002B05D1300003B0C0BCAB
:10483000B946B046F0BD404608F06AFAF5E70122F5
:10484000054B5242CFE7C04640420F00D81B002024
:104850004827002054270020FFFFFF7F70B5040089
:1048600003F058FE01230100050001222000FFF79C
:10487000C1FE084B1C68002C06D06368002B05D0D5
:1048800098472469002CF8D1280070BD2469002CB9
:10489000F3D1F9E748270020F0B5CE46474680B56A
:1048A000A5B004000D00FCF783FF00232A4A12186C
:1048B0004B41002B49DB294E300008F061FA002300
:1048C0000700039322002B00254803A9FFF766FD8C
:1048D000039B8046002B14D1224B1C68002C06D071
:1048E0006368002B0BD098472469002CF8D1002F67
:1048F00027D1404625B0C0BCB946B046F0BD2469BA
:10490000ECE7184B1D689946002D22D0164C02E0AA
:104910002D69002D11D02B68002BF9D02368002BB6
:1049200001D09D42F4D1039B28001A0004A90193F1
:10493000FFF7D4FD2D69002DEDD14B4603951C6882
:10494000CCE7300008F0E4F9D3E70122074B5242EC
:10495000B1E70395CBE7C04640420F00D81B0020CB
:10496000914500104827002054270020FFFFFF7FBB
:104970000FB400B583B004A901C90191FFF78CFF02
:1049800003B008BC04B018477047C0460022014B72
:104990001A707047D22B00204B790020FF2B0BD1CF
:1049A0008B79002B08D1CB79012B05D1082A03D9AB
:1049B0008A78024B09301A707047C046D22B00200B
:1049C0000120704710B5012909D115495379107993
:1049D00009781B0203430020994202D010BD012038
:1049E000FCE75378012B08D0022BF7D1002064227A
:1049F0000021FDF765F80120F0E7D37891781B02DC
:104A00001943DB0507D54A0A100001231A407E33FB
:104A10001940FDF7DBF801204A0A4042F5E7C0469D
:104A2000D22B0020004870479CD3001070B50500C1
:104A300014000120012909D153780020012B05D150
:104A4000637912791B021343072B00D070BD21003C
:104A50002800024A9F3301F061FAF7E7C0D3001043
:104A600001230370004870477CD3001048780B780E
:104A70008A7800021843120410439622CB7810B5AE
:104A80001B060343D200934200D010BD0022012038
:104A900011004042FDF79AF8024B1860024B196072
:104AA0007047C046602600206426002010B5024BE7
:104AB0001878FCF75FF810BDD42B0020154B70B5AB
:104AC0001A68002A22D0EFF3108172B6106800280D
:104AD000FCD0BFF35F8F00220F48596002701B6843
:104AE000BFF35F8F1A6081F31088002400250B4EFE
:104AF0003078FCF733F8002804D100240025290081
:104B0000200070BD3078FCF735F8F8E7FA2400256E
:104B1000A400ECE78C2B0020D52B0020D42B002008
:104B200070B5040000200E0001F022FB002835D0F3
:104B3000002001F033FB002830D0FCF739FE0023C1
:104B4000184A12184B41002B24DB174D280008F09F
:104B500017F9002822D0002001F00AFB00280BD111
:104B6000012000210324404200F00AFD6442280095
:104B700008F0CEF8200070BD002001F00FFB0028E7
:104B8000EED021003200002001F014FB041EEED113
:104B9000033CECE70122054B5242D6E70324644272
:104BA000E8E7C04640420F00B42B0020FFFFFF7F24
:104BB00010B5FCF7FDFD00230E4A12184B41002BE7
:104BC00013DB0D4C200008F0DBF800280CD001208E
:104BD0000021404200F0D4FC002001F035FB002809
:104BE000F5D1200008F094F810BD0122034B524289
:104BF000E7E7C04640420F00B42B0020FFFFFF7FD5
:104C0000F8B5DE46574680B505000C00FCF7D0FD30
:104C10000023364A12184B41002B5ADB3449080056
:104C20008A4608F0ADF8002803D1C0BCBB46B246A6
:104C3000F8BD002001F09CFA00284ED00026002C80
:104C400043DD2C4B9B4614E0A919002001F038FBF2
:104C5000070001200021404200F092FC002001F0FA
:104C6000F3FAFCF7A5FD234BF61918605960B4421E
:104C70002BDD002001F046FBA71B0200B84200DD3F
:104C80003A00002AE0D101200021404200F078FCE7
:104C9000002001F0D9FA002001F06AFA002814D0AF
:104CA000002001F02FFB0028E1D1FCF781FD5B46DD
:104CB0000F001A685B68002184460F4812184B41A8
:104CC0009F4202D8D3D19445D1D9504608F020F85C
:104CD000ABE70122094B5242A0E700200021054B1F
:104CE00018605960504608F013F89EE740420F00E4
:104CF000B42B0020601D002020A10700FFFFFF7FD4
:104D000030B52A4C85B00021200008F019F80028A1
:104D10001CD1274B1A68002A16D0EFF3108172B607
:104D200010680028FCD0BFF35F8F01242148596030
:104D300002781B68D2B20470BFF35F8F0020186046
:104D400081F31088002A17D005B030BD0120002162
:104D5000404200F015FC002001F020FA0500200080
:104D600007F0D6FF002DEFD0134B1B68002BEBD0C4
:104D7000124A10689847E7E7FCF708FB0400FCF7C5
:104D800017FDFA220023920012184B41002B09DB79
:104D90000121029100210191094920000091FCF7B5
:104DA000F9FAD1E70122074B5242F1E7B42B002078
:104DB0008C2B0020D52B00206026002064260020AC
:104DC000BD4A0010FFFFFF7FD02310B51B0684B043
:104DD0001C68FCF7DBFAFCF7D7FBA04202D00020EE
:104DE00004B010BD294B002100201B7801F07EFD8E
:104DF00027480368002B41D00120FCF74DF8FF2322
:104E0000244C254920701840FBF7CEFE2078012164
:104E1000FBF792FE0520FBF7B5FE002821D1082202
:104E200000211E48FDF7DCFFFCF7B0FA0400FCF798
:104E3000BFFCFA220023920012184B41002B20DB0A
:104E40000121029100210191154920000091FCF7F8
:104E5000A1FA0028C3DB13480121FFF74BFC012016
:104E6000BEE70120FBF738FE01000C48FCF77AF89A
:104E7000002205200C49FBF7C1FEECE7FCF754F8D3
:104E8000BAE70122094B5242DAE7C04668EB00104C
:104E9000B42B0020D42B0020014D00108C2B0020BF
:104EA000BD4A0010F0110020AD4A0010FFFFFF7F47
:104EB0000048704708D5001000487047B4D400106F
:104EC00070B5040017480378002B21D0002C06D1C0
:104ED000C1241548154BA4004380048070BD052CE7
:104EE0001DD8134B1048A400E558811C002304E092
:104EF00001330A800231132B0ED0EA5CDCB2002AA7
:104F0000F6D1C0230134E4B264009B001C43E4E703
:104F1000112100F017F8D9E7CA24A400DDE700202A
:104F2000DCE7C046BC2B002020270020090400003D
:104F30001CD5001010B5024800F0D8F810BDC046CE
:104F4000A42B002030B54B1E012900D1A7E0664AF2
:104F500011780D112C0030349F2900D9A2E0047083
:104F6000012B00D1BEE00F21147821400C00303419
:104F7000092900DD98E04470022B00D1B2E054789A
:104F80002511290030319F2C00D990E08170032B2E
:104F900000D1A7E00F2121400C003034092900DDA9
:104FA00087E0C470042B00D19CE09478251129007F
:104FB00030319F2C00D97FE00171052B00D191E0A9
:104FC0000F2121400C003034092900DD76E04471C6
:104FD000062B00D186E0D4782511290030319F2C92
:104FE00000D96EE08171072B00D17BE00F212140B9
:104FF0000C003034092966DCC471082B00D171E043
:1050000014792511290030319F2C5FD80172092BAA
:1050100068D00F2121400C003034092958DC44723B
:105020000A2B5FD054792511290030319F2C52D89A
:1050300081720B2B56D00F2121400C0030340929EE
:105040004BDCC4720C2B4DD09479251129003031E2
:105050009F2C00D9073101730D2B43D00F21214024
:105060000C003034092901DD37310C0044730E2B5C
:1050700038D0D1790C11220030329F2900D9073263
:1050800082730F2B2ED00F220A4011003731092ACC
:1050900001DC30321100C173102B23D010300023FB
:1050A000037030BD07345AE737310C0063E707312E
:1050B0006CE737310C0074E707317DE737310C00BE
:1050C00085E707318EE737310C0095E707319DE71B
:1050D00037310C00A3E70731AAE737310C00C4725F
:1050E0000C2BB1D1C018DAE7A42B002030B5002575
:1050F00089B004000922002101A80095FDF770FE87
:105100000922002105A80495FDF76AFE4B236A4693
:105110006846137004A90D2207F0EAFD1521082244
:1051200020006944FDF762FE09B030BDF8B500F01B
:1051300045F90C23194DFF22AB6705201849FBF7F1
:105140005DFD184C402200212000FDF749FE40275C
:10515000002301262121144A66702783A260136070
:1051600063545F31618445396354104A1049636068
:10517000E2602787A1620B606362E26207F0F8FDDC
:1051800080239B052E64EB6490230A4A0120EA5099
:105190008022094B5202DA64F8BDC046000011506B
:1051A000490500205C2700208400105000011050A9
:1051B0008000105010D001000020115010B50121C6
:1051C0000520FBF7B9FC10BD10B5002200210248F4
:1051D00000F014F910BDC0467C270020044B197064
:1051E000002904D080219023024A8902D1507047BF
:1051F000CE2B0020002011500B785B0602D14B789B
:10520000052B00D070478A78014B1A60FAE7C04638
:1052100000001150F0B5C646C87800B58007830F6E
:105220001800012B61D08F780C794B797F211B02FC
:10523000394023434E00FC09334D32195201AA185C
:10524000977001276740577000275B055B0DD7708B
:105250001383D076B846CA00012C32D02B4FBC46FF
:105260008F016244BC46AC446746BA60474617604B
:10527000002932D0264AC900904662464144516016
:105280003F223F339343022838D0224937190A6816
:105290007F01D3180B602049EF19FA608B422FD899
:1052A000341964012D19EB7E1C499B064A401343B7
:1052B00080220120120613436A68136080BCB8463E
:1052C000F0BD174FBC468F016244BC46AC446746F4
:1052D000BA6247461760002909D1002364012D19DD
:1052E0006B60104B0120EB60E8E70020E6E70B4A1B
:1052F000C9009046624641445162C1E75B00C4E781
:10530000FCF78EFCFA68CBE75C2700208400105085
:1053100004001050882B0020FF0F10500000105088
:10532000800010500001105010B507F021FD10BD95
:1053300010B57F200C0020404000E4091100001946
:105340001A00034B4001C01800F058F8012010BDAE
:105350005C2700207F22130010B50B400A420BD0BF
:10536000C90980225800401806494001401812011E
:10537000002107F01DFD10BD02220348C909521A81
:105380008266EEE75C270020002011507F2210008B
:1053900010B508400A4200D110BD0023C9094000E1
:1053A000401804494001081800220349C37007F05F
:1053B000FFFCF1E75C270020FFF7FFFF80220A4B8C
:1053C000520410B51A60094B09491A6010000B68A5
:1053D0009843FBD18022002152010648FDF700FDD1
:1053E0000922054B5A6710BD00E0004000F0004064
:1053F00008C00040000010500000115070B5837EBE
:1054000004000D001600002B17D10023E3820133A6
:105410002000A682A376256107F062FC002804D054
:1054200080219023084A8902D150200007F0C8FC4F
:10543000002805D00123237770BD07F0B1FCE4E715
:10544000200007F0A5FCF7E7002011507047C04688
:105450007047C04600207047002070477047C04624
:105460007047C0467047C0467047C046024B5878E8
:10547000431E9841C0B2704774210020024B187837
:105480004007C00F7047C04674210020F0B5464663
:105490004F46D646C0B52F4B814698461B780E0026
:1054A0000124FF2B43D1002940D0002154222A4857
:1054B000FDF796FC0022294C294B20001A70FBF7BF
:1054C00033FD284B1C60284C20001430FBF73AFDBC
:1054D000200001F0F7FD254B254D1C60254B002BCE
:1054E00004D02800FFF7BCFA234B1860234900249E
:1054F00000238A462A78204F10E03A6863019446D8
:105500006344002B12D05B68002B0FD098472A7899
:105510000134E4B2511C2300A1420EDBA242ECD8BC
:105520009B1A5B0153445B68002BEFD100242000E1
:10553000E0BCBA46B146A846F0BD43464A463100F3
:1055400048461A70FFF7F2FD041EEFD04846FFF7F9
:1055500035FEECE724120020742100206C2100208D
:10556000CF2B0020C821002008120020CC210020D1
:10557000CD2B0020614A0010C41F002038D6001037
:10558000F0B5DE4657464E464546E0B5C44B8BB0B7
:105590001B78FF2B00D12EE1C24BC34D9A4607ACBE
:1055A0002E687269EFF3108172B61368002BFCD07D
:1055B000BFF35F8FB1613000210001F0C5FB72695C
:1055C000B369BFF35F8F0021116083F31088002857
:1055D00000D110E16378082BE2D852469B00D358E3
:1055E0009F466368002BDBD0A0689847D8E77F23ED
:1055F0002179AE4E0B405800CA093618B618320051
:10560000012730321079B843107110790337B8434D
:105610001071002B00D1F7E0A54A337D1278934238
:1056200000D3E5E0A34A5B011268D318002B00D138
:10563000E1E09E6962792078A368B047B0E79E4AAE
:105640001378002B00D1D6E01378013BDBB2137046
:105650001378002BA4D10122944B01211B7893488D
:105660001343924A914E13703423D25C8A43C2543E
:10567000C25C04208243F2540133F25C8A43F25448
:10568000F25C8243F254237800209B4600F0AEFC8B
:10569000602223791A40602A0DD0402A00D1BEE052
:1056A000DB06DB0E012B00D10EE1022B00D1D0E096
:1056B000002B00D1BFE020780021FFF74BFE8021B6
:1056C0002078FFF747FE6BE7784E3378DB0700D48E
:1056D00066E7FFF7C9FE63E7744BDB78DB0700D4AE
:1056E0005EE76068FFF7B4FE5AE7704E3378DB0779
:1056F00000D455E730780007C00FFFF7B3FE4FE73F
:105700006E496B4E23788B466A499846894631002C
:105710003278002346460027884611E04A46126840
:105720007B0194466344002B6CD0DB6830009847C3
:1057300043461A780137FFB2511C3B008F4241DCCF
:105740009742EBD39B1A5B015B44EEE75B49584EF3
:1057500023788B4657499846894631003278002392
:1057600046460027884611E04A4612687B01944667
:105770006344002B21D0DB683000984743461A78F9
:105780000137FFB2511C3B008F4205DCBA42EBD817
:105790009B1A5B015B44EEE7444E5422002130002B
:1057A000FDF71EFB1022FF21301DFDF719FB300015
:1057B0002022FF211430FDF713FB00F00DFCFFF752
:1057C0004FFEEDE6394E542200213000FDF708FB74
:1057D0001022FF21301DFDF703FB30002022FF21A6
:1057E0001430FDF7FDFA00F0F7FB2379B370D7E62C
:1057F000501C98420EDA0BB0F0BCBB46B246A9462C
:10580000A046F0BD294EEEE762792078A36800F04B
:1058100001FCC5E69B1A294A5B01D31809E7284811
:1058200000F0E4FB0121584608AAFFF7FFF8002822
:1058300000D0B5E63FE7202A00D14EE1002A00D093
:1058400039E76379092B00D935E71E4A9B00D35805
:105850009F467023217A0B4200D02CE77F26CB098C
:1058600098460E40114B76009B1943441F7D104B08
:105870001B789F425ED3581CB84200DA49E1FF1AF8
:105880000E4B7F01DF19002A00D146E1786900F054
:10589000ADFB012158467B6908AA9847C7E7C04677
:1058A0002412002090D50010CC210020742100206B
:1058B000CD2B0020C41F0020CF2B002038D6001095
:1058C0002D4A0010B4D50010237A0F2B00D9F2E630
:1058D000D64A9446D64A63441B791278934234D30D
:1058E000511C994200DAE6E6D24E9B1A5B01F6188B
:1058F000706900F07BFB01215846736908AA98473C
:10590000002800D04CE66022160023791E401A427F
:1059100000D0D0E663790A3B012B00D9CBE600F03A
:1059200065FB63790A2B00D150E1584608A900F0C5
:10593000DDFA35E6C04B7F011B68DF19002A00D174
:10594000EBE0002F00D1B6E6A0E7BB4A5B0116688A
:10595000F618002E00D1AEE6CAE7B44BA7795B7803
:105960009F42E2D0B14B5B78002B00D06AE1AF4B95
:105970005F70002F00D155E1781EC0B2FFF79CFA8E
:10598000002800D14AE143780493022B00D045E17E
:105990000121C279931152110B400A4012015B019F
:1059A0001343A24A2F3112788A4313439F4A13703C
:1059B00009239946C37882781B021343C3180293C4
:1059C0009D4B814498464F46029BBB4200D806E15E
:1059D00001227B7800920B2B04D1FB7800933B785B
:1059E000FF187B78042B00D018E1029BB946DB1B23
:1059F0009BB203938E4B1E7800231F0001931BE084
:105A0000424612687B01D618002E00D106E14946B5
:105A10005846039A336998470590082803D9039A92
:105A2000824200D3DEE0824B01371E78FFB2731C46
:105A300001979F4200DDF1E0BE42E1D8019B9E1B31
:105A40007C4B76019C466644E1E7784B06AA5B787E
:105A5000023213705846012308A900F05FFA9FE54F
:105A6000E088030AC0B20F2B00D924E673499A00DC
:105A70008A58974608A800F0BFFA5846A179FFF760
:105A8000A3FB0222694B1B781343684A137087E516
:105A9000E388012B00D00EE60822644B1B78934369
:105AA000624A137041E70220604B197806AB9A1CDA
:105AB0008B068908DB0F01400B43138058460223F5
:105AC00008A900F02BFA6BE5E388012B00D0F2E582
:105AD0000822564B1B781343E2E7237A0F2B00D999
